{
    "contractName": "Dweets",
    "abi": [
        {
            "inputs": [],
            "payable": false,
            "stateMutability": "nonpayable",
            "type": "constructor"
        },
        {
            "anonymous": false,
            "inputs": [
                {
                    "indexed": false,
                    "internalType": "uint256",
                    "name": "id",
                    "type": "uint256"
                }
            ],
            "name": "newDweetEvent",
            "type": "event"
        },
        {
            "anonymous": false,
            "inputs": [
                {
                    "indexed": false,
                    "internalType": "uint256",
                    "name": "dweetId",
                    "type": "uint256"
                }
            ],
            "name": "newLikeEvent",
            "type": "event"
        },
        {
            "constant": true,
            "inputs": [
                {
                    "internalType": "uint256",
                    "name": "",
                    "type": "uint256"
                }
            ],
            "name": "dweets",
            "outputs": [
                {
                    "internalType": "uint256",
                    "name": "id",
                    "type": "uint256"
                },
                {
                    "internalType": "string",
                    "name": "message",
                    "type": "string"
                },
                {
                    "internalType": "uint256",
                    "name": "likes",
                    "type": "uint256"
                },
                {
                    "internalType": "address",
                    "name": "author",
                    "type": "address"
                }
            ],
            "payable": false,
            "stateMutability": "view",
            "type": "function"
        },
        {
            "constant": true,
            "inputs": [],
            "name": "dweetsCount",
            "outputs": [
                {
                    "internalType": "uint256",
                    "name": "",
                    "type": "uint256"
                }
            ],
            "payable": false,
            "stateMutability": "view",
            "type": "function"
        },
        {
            "constant": false,
            "inputs": [
                {
                    "internalType": "string",
                    "name": "_message",
                    "type": "string"
                }
            ],
            "name": "postDweet",
            "outputs": [],
            "payable": false,
            "stateMutability": "nonpayable",
            "type": "function"
        },
        {
            "constant": false,
            "inputs": [
                {
                    "internalType": "uint256",
                    "name": "_dweetId",
                    "type": "uint256"
                }
            ],
            "name": "like",
            "outputs": [],
            "payable": false,
            "stateMutability": "nonpayable",
            "type": "function"
        }
    ],
    "bytecode": "0x608060405234801561001057600080fd5b50600060018190555061059b806100286000396000f3fe608060405234801561001057600080fd5b506004361061004c5760003560e01c806337dc190c14610051578063427f865114610139578063675164a414610157578063e82935da14610212575b600080fd5b61007d6004803603602081101561006757600080fd5b8101908080359060200190929190505050610240565b60405180858152602001806020018481526020018373ffffffffffffffffffffffffffffffffffffffff1673ffffffffffffffffffffffffffffffffffffffff168152602001828103825285818151815260200191508051906020019080838360005b838110156100fb5780820151818401526020810190506100e0565b50505050905090810190601f1680156101285780820380516001836020036101000a031916815260200191505b509550505050505060405180910390f35b610141610328565b6040518082815260200191505060405180910390f35b6102106004803603602081101561016d57600080fd5b810190808035906020019064010000000081111561018a57600080fd5b82018360208201111561019c57600080fd5b803590602001918460018302840111640100000000831117156101be57600080fd5b91908080601f016020809104026020016040519081016040528093929190818152602001838380828437600081840152601f19601f82011690508083019250505050505050919291929050505061032e565b005b61023e6004803603602081101561022857600080fd5b8101908080359060200190929190505050610447565b005b6000602052806000526040600020600091509050806000015490806001018054600181600116156101000203166002900480601f0160208091040260200160405190810160405280929190818152602001828054600181600116156101000203166002900480156102f25780601f106102c7576101008083540402835291602001916102f2565b820191906000526020600020905b8154815290600101906020018083116102d557829003601f168201915b5050505050908060020154908060030160009054906101000a900473ffffffffffffffffffffffffffffffffffffffff16905084565b60015481565b60405180608001604052806001548152602001828152602001600081526020013373ffffffffffffffffffffffffffffffffffffffff1681525060008060015481526020019081526020016000206000820151816000015560208201518160010190805190602001906103a29291906104c1565b506040820151816002015560608201518160030160006101000a81548173ffffffffffffffffffffffffffffffffffffffff021916908373ffffffffffffffffffffffffffffffffffffffff1602179055509050506001600081548092919060010191905055507f7dbe182125a3addf1797a7315179498b87f82f1c647ba1cdd876f8210bd77b5860018054036040518082815260200191505060405180910390a150565b80600011158015610459575060015481105b61046257600080fd5b600080828152602001908152602001600020600201600081548092919060010191905055507fa40054337d592bd93dfb9bf71598797cda64f94953eea3224efe9f2366a55cc8816040518082815260200191505060405180910390a150565b828054600181600116156101000203166002900490600052602060002090601f016020900481019282601f1061050257805160ff1916838001178555610530565b82800160010185558215610530579182015b8281111561052f578251825591602001919060010190610514565b5b50905061053d9190610541565b5090565b61056391905b8082111561055f576000816000905550600101610547565b5090565b9056fea265627a7a723158209cd02c212834bc87989d8b6887a5af103357328446a8d61ed26d1b8e27cffc3664736f6c634300050c0032",
    "source": "pragma solidity ^0.5.1;\n\ncontract Dweets {\n    //Model a candidate\n    struct Dweet {\n        uint id;\n        string message;\n        uint likes;\n        address author;\n    }\n\n    mapping(uint => Dweet) public dweets;\n    uint public dweetsCount;\n\n    event newDweetEvent(\n        uint id\n    );\n\n    event newLikeEvent(\n        uint dweetId\n    );\n\n    //Constructor\n    constructor() public {\n        dweetsCount = 0;\n    }\n\n    function postDweet(string memory _message) public {\n        dweets[dweetsCount] = Dweet(dweetsCount, _message, 0, msg.sender);\n        dweetsCount ++;\n\n        emit newDweetEvent(dweetsCount - 1);\n    }\n\n    function like(uint _dweetId) public {\n        //require a valid dweet id\n        require(0 <= _dweetId && _dweetId < dweetsCount);\n        dweets[_dweetId].likes ++;\n\n        emit newLikeEvent(_dweetId);\n    }\n}",
    "sourcePath": "/mnt/01CFDDAB9F8A97C0/applications/dwitter/contracts/Dweets.sol",
    "compiler": {
        "name": "solc",
        "version": "0.5.12+commit.7709ece9.Emscripten.clang"
    },
    "schemaVersion": "3.0.19",
    "updatedAt": "2019-12-11T18:18:17.731Z",
    "networkType": "ethereum",
    "devdoc": {
        "methods": {}
    },
    "userdoc": {
        "methods": {}
    }
}